{
  "address": "0x68fE8Dec08447C6740159C9a9aca72f833a89c2B",
  "abi": [
    {
      "inputs": [
        {
          "internalType": "address",
          "name": "_hasMON",
          "type": "address"
        }
      ],
      "stateMutability": "nonpayable",
      "type": "constructor"
    },
    {
      "inputs": [
        {
          "internalType": "address",
          "name": "owner",
          "type": "address"
        }
      ],
      "name": "OwnableInvalidOwner",
      "type": "error"
    },
    {
      "inputs": [
        {
          "internalType": "address",
          "name": "account",
          "type": "address"
        }
      ],
      "name": "OwnableUnauthorizedAccount",
      "type": "error"
    },
    {
      "anonymous": false,
      "inputs": [
        {
          "indexed": true,
          "internalType": "address",
          "name": "user",
          "type": "address"
        },
        {
          "indexed": false,
          "internalType": "uint256",
          "name": "amount",
          "type": "uint256"
        }
      ],
      "name": "CollateralDeposited",
      "type": "event"
    },
    {
      "anonymous": false,
      "inputs": [
        {
          "indexed": true,
          "internalType": "address",
          "name": "user",
          "type": "address"
        },
        {
          "indexed": false,
          "internalType": "uint256",
          "name": "amount",
          "type": "uint256"
        }
      ],
      "name": "CollateralWithdrawn",
      "type": "event"
    },
    {
      "anonymous": false,
      "inputs": [
        {
          "indexed": true,
          "internalType": "address",
          "name": "user",
          "type": "address"
        },
        {
          "indexed": false,
          "internalType": "uint256",
          "name": "allowance",
          "type": "uint256"
        },
        {
          "indexed": false,
          "internalType": "uint256",
          "name": "requiredAmount",
          "type": "uint256"
        }
      ],
      "name": "ERC20InsufficientAllowance",
      "type": "event"
    },
    {
      "anonymous": false,
      "inputs": [
        {
          "indexed": true,
          "internalType": "address",
          "name": "previousOwner",
          "type": "address"
        },
        {
          "indexed": true,
          "internalType": "address",
          "name": "newOwner",
          "type": "address"
        }
      ],
      "name": "OwnershipTransferred",
      "type": "event"
    },
    {
      "anonymous": false,
      "inputs": [
        {
          "indexed": false,
          "internalType": "address",
          "name": "perpEngine",
          "type": "address"
        }
      ],
      "name": "PerpEngineSet",
      "type": "event"
    },
    {
      "inputs": [
        {
          "internalType": "address",
          "name": "",
          "type": "address"
        }
      ],
      "name": "collateralBalances",
      "outputs": [
        {
          "internalType": "uint256",
          "name": "",
          "type": "uint256"
        }
      ],
      "stateMutability": "view",
      "type": "function"
    },
    {
      "inputs": [
        {
          "internalType": "uint256",
          "name": "amount",
          "type": "uint256"
        }
      ],
      "name": "depositCollateral",
      "outputs": [],
      "stateMutability": "nonpayable",
      "type": "function"
    },
    {
      "inputs": [],
      "name": "hasMON",
      "outputs": [
        {
          "internalType": "contract IERC20",
          "name": "",
          "type": "address"
        }
      ],
      "stateMutability": "view",
      "type": "function"
    },
    {
      "inputs": [],
      "name": "owner",
      "outputs": [
        {
          "internalType": "address",
          "name": "",
          "type": "address"
        }
      ],
      "stateMutability": "view",
      "type": "function"
    },
    {
      "inputs": [],
      "name": "perpEngine",
      "outputs": [
        {
          "internalType": "contract IPerpEngine",
          "name": "",
          "type": "address"
        }
      ],
      "stateMutability": "view",
      "type": "function"
    },
    {
      "inputs": [],
      "name": "renounceOwnership",
      "outputs": [],
      "stateMutability": "nonpayable",
      "type": "function"
    },
    {
      "inputs": [
        {
          "internalType": "address",
          "name": "_perpEngine",
          "type": "address"
        }
      ],
      "name": "setPerpEngine",
      "outputs": [],
      "stateMutability": "nonpayable",
      "type": "function"
    },
    {
      "inputs": [
        {
          "internalType": "address",
          "name": "newOwner",
          "type": "address"
        }
      ],
      "name": "transferOwnership",
      "outputs": [],
      "stateMutability": "nonpayable",
      "type": "function"
    },
    {
      "inputs": [
        {
          "internalType": "uint256",
          "name": "amount",
          "type": "uint256"
        }
      ],
      "name": "withdrawCollateral",
      "outputs": [],
      "stateMutability": "nonpayable",
      "type": "function"
    }
  ],
  "transactionHash": "0x2ee89277f87bd2b99c6546ee9d7cb6cae54a81c3b94ac964bb5fea5527fe66df",
  "args": [
    "0xE887582468591CB9dE71ab01acA4101C756A6442"
  ],
  "numDeployments": 3,
  "solcInputHash": "6eb473e75c4e05be4ea9489cbc2ca831",
  "bytecode": "0x6080346100c657601f61091538819003918201601f19168301916001600160401b038311848410176100cb578084926020946040528339810103126100c657516001600160a01b0390818116908190036100c65733156100ad5760005460018060a01b0319903382821617600055604051933391167f8be0079c531659141344cd1fd0a4f28419497f9722a3daafe3b4186f6b6457e0600080a3600154161760015561083390816100e28239f35b604051631e4fbdf760e01b815260006004820152602490fd5b600080fd5b634e487b7160e01b600052604160045260246000fdfe608060408181526004908136101561001657600080fd5b600092833560e01c90816329bc969d146104d25750806348ba4d2b146104a95780636112fe2e146102a6578063715018a614610249578063768e48a1146102205780638da5cb5b146101f8578063b619daf714610145578063bad4a01f146101215763f2fde38b1461008757600080fd5b3461011d57602036600319011261011d576001600160a01b03823581811693919290849003610119576100b8610509565b8315610103575050600054826bffffffffffffffffffffffff60a01b821617600055167f8be0079c531659141344cd1fd0a4f28419497f9722a3daafe3b4186f6b6457e0600080a380f35b51631e4fbdf760e01b8152908101849052602490fd5b8480fd5b8280fd5b5050346101415760203660031901126101415761013e90356105dc565b80f35b5080fd5b503461011d57602036600319011261011d576001600160a01b038235818116939084900361011957610175610509565b6002549182166101bc57506001600160a01b0319168217600255519081527ffd111688e3686ea2821d45ddcfbee4df0c026b55840ef0165af173924e7bf68090602090a180f35b606490602084519162461bcd60e51b8352820152601660248201527514195c9c115b99da5b9948185b1c9958591e481cd95d60521b6044820152fd5b838234610141578160031936011261014157905490516001600160a01b039091168152602090f35b83823461014157816003193601126101415760015490516001600160a01b039091168152602090f35b83346102a357806003193601126102a357610262610509565b600080546001600160a01b0319811682556001600160a01b03167f8be0079c531659141344cd1fd0a4f28419497f9722a3daafe3b4186f6b6457e08280a380f35b80fd5b50903461011d576020806003193601126104a5578135918215610452573385526003825282848620541061041157338552600382528385208054908482039182116103fe57556002546001600160a01b039086908216803b156101415781906064885180948193630363a16160e01b835233898401528a60248401528160448401525af180156103f4576103dc575b5085916044849260015416918751948593849263a9059cbb60e01b845233908401528860248401525af19081156103d2577fc30fcfbcaac9e0deffa719714eaa82396ff506a0d0d0eebe170830177288715d93949161039b9187916103a5575b5061059e565b519283523392a280f35b6103c59150843d86116103cb575b6103bd818361055f565b810190610581565b38610395565b503d6103b3565b84513d87823e3d90fd5b916044966103eb859394610535565b96509190610335565b86513d89823e3d90fd5b634e487b7160e01b875260118352602487fd5b60649184519162461bcd60e51b8352820152601760248201527f496e73756666696369656e7420636f6c6c61746572616c0000000000000000006044820152fd5b60849184519162461bcd60e51b8352820152602960248201527f576974686472617720616d6f756e74206d7573742062652067726561746572206044820152687468616e207a65726f60b81b6064820152fd5b8380fd5b83823461014157816003193601126101415760025490516001600160a01b039091168152602090f35b929050346104a55760203660031901126104a557356001600160a01b038116908190036104a5579260209381526003845220548152f35b6000546001600160a01b0316330361051d57565b60405163118cdaa760e01b8152336004820152602490fd5b67ffffffffffffffff811161054957604052565b634e487b7160e01b600052604160045260246000fd5b90601f8019910116810190811067ffffffffffffffff82111761054957604052565b90816020910312610599575180151581036105995790565b600080fd5b156105a557565b60405162461bcd60e51b815260206004820152600f60248201526e151c985b9cd9995c8819985a5b1959608a1b6044820152606490fd5b9081156107a75760015460408051636eb1769f60e11b81523360048201523060248201529093916020916001600160a01b03918216908381604481855afa90811561079c5760009161076f575b5084811061073957508260009160648851809481936323b872dd60e01b83523360048401523060248401528960448401525af1801561072e57610673916000916103a5575061059e565b33600052600382528460002080549084820180921161071857556002541693843b1561059957600080956064835180988193630363a16160e01b8352336004840152886024840152600160448401525af194851561070d577fd7243f6f8212d5188fd054141cf6ea89cfc0d91facb8c3afe2f88a13584801429394956106fe575b50519283523392a2565b61070790610535565b386106f4565b50513d6000823e3d90fd5b634e487b7160e01b600052601160045260246000fd5b86513d6000823e3d90fd5b94957ffb8f41b23e99d2101d86da76cdfa87dd51c82ed07d3cb62cbc473e469dbc75c394925080939150519485528401523392a2565b908482813d8311610795575b610785818361055f565b810103126102a357505138610629565b503d61077b565b87513d6000823e3d90fd5b60405162461bcd60e51b815260206004820152602860248201527f4465706f73697420616d6f756e74206d7573742062652067726561746572207460448201526768616e207a65726f60c01b6064820152608490fdfea26469706673582212202e73191f97c2cd4c97c553f021397dae51c7ddf0068e958583b5b5da3c6e60d364736f6c63430008140033",
  "devdoc": {
    "errors": {
      "OwnableInvalidOwner(address)": [
        {
          "details": "The owner is not a valid owner account. (eg. `address(0)`)"
        }
      ],
      "OwnableUnauthorizedAccount(address)": [
        {
          "details": "The caller account is not authorized to perform an operation."
        }
      ]
    },
    "kind": "dev",
    "methods": {
      "owner()": {
        "details": "Returns the address of the current owner."
      },
      "renounceOwnership()": {
        "details": "Leaves the contract without owner. It will not be possible to call `onlyOwner` functions. Can only be called by the current owner. NOTE: Renouncing ownership will leave the contract without an owner, thereby disabling any functionality that is only available to the owner."
      },
      "transferOwnership(address)": {
        "details": "Transfers ownership of the contract to a new account (`newOwner`). Can only be called by the current owner."
      }
    },
    "version": 1
  },
  "userdoc": {
    "kind": "user",
    "methods": {},
    "version": 1
  },
  "storageLayout": {
    "storage": [
      {
        "astId": 8,
        "contract": "contracts/perps/HasMonCollateral.sol:HasMonCollateral",
        "label": "_owner",
        "offset": 0,
        "slot": "0",
        "type": "t_address"
      },
      {
        "astId": 274,
        "contract": "contracts/perps/HasMonCollateral.sol:HasMonCollateral",
        "label": "hasMON",
        "offset": 0,
        "slot": "1",
        "type": "t_contract(IERC20)225"
      },
      {
        "astId": 277,
        "contract": "contracts/perps/HasMonCollateral.sol:HasMonCollateral",
        "label": "perpEngine",
        "offset": 0,
        "slot": "2",
        "type": "t_contract(IPerpEngine)269"
      },
      {
        "astId": 281,
        "contract": "contracts/perps/HasMonCollateral.sol:HasMonCollateral",
        "label": "collateralBalances",
        "offset": 0,
        "slot": "3",
        "type": "t_mapping(t_address,t_uint256)"
      }
    ],
    "types": {
      "t_address": {
        "encoding": "inplace",
        "label": "address",
        "numberOfBytes": "20"
      },
      "t_contract(IERC20)225": {
        "encoding": "inplace",
        "label": "contract IERC20",
        "numberOfBytes": "20"
      },
      "t_contract(IPerpEngine)269": {
        "encoding": "inplace",
        "label": "contract IPerpEngine",
        "numberOfBytes": "20"
      },
      "t_mapping(t_address,t_uint256)": {
        "encoding": "mapping",
        "key": "t_address",
        "label": "mapping(address => uint256)",
        "numberOfBytes": "32",
        "value": "t_uint256"
      },
      "t_uint256": {
        "encoding": "inplace",
        "label": "uint256",
        "numberOfBytes": "32"
      }
    }
  }
}