{
  "address": "0x4e9E588a27DE851947e3848C5764cb817f02aBD3",
  "abi": [
    {
      "inputs": [
        {
          "internalType": "address",
          "name": "_hasMON",
          "type": "address"
        },
        {
          "internalType": "address",
          "name": "_feeRecipient",
          "type": "address"
        }
      ],
      "stateMutability": "nonpayable",
      "type": "constructor"
    },
    {
      "inputs": [
        {
          "internalType": "address",
          "name": "target",
          "type": "address"
        }
      ],
      "name": "AddressEmptyCode",
      "type": "error"
    },
    {
      "inputs": [
        {
          "internalType": "address",
          "name": "account",
          "type": "address"
        }
      ],
      "name": "AddressInsufficientBalance",
      "type": "error"
    },
    {
      "inputs": [],
      "name": "FailedInnerCall",
      "type": "error"
    },
    {
      "inputs": [
        {
          "internalType": "address",
          "name": "owner",
          "type": "address"
        }
      ],
      "name": "OwnableInvalidOwner",
      "type": "error"
    },
    {
      "inputs": [
        {
          "internalType": "address",
          "name": "account",
          "type": "address"
        }
      ],
      "name": "OwnableUnauthorizedAccount",
      "type": "error"
    },
    {
      "inputs": [],
      "name": "ReentrancyGuardReentrantCall",
      "type": "error"
    },
    {
      "inputs": [
        {
          "internalType": "address",
          "name": "token",
          "type": "address"
        }
      ],
      "name": "SafeERC20FailedOperation",
      "type": "error"
    },
    {
      "anonymous": false,
      "inputs": [
        {
          "indexed": true,
          "internalType": "address",
          "name": "user",
          "type": "address"
        },
        {
          "indexed": false,
          "internalType": "uint256",
          "name": "amount",
          "type": "uint256"
        }
      ],
      "name": "CollateralAllocated",
      "type": "event"
    },
    {
      "anonymous": false,
      "inputs": [
        {
          "indexed": true,
          "internalType": "address",
          "name": "user",
          "type": "address"
        },
        {
          "indexed": false,
          "internalType": "uint256",
          "name": "amount",
          "type": "uint256"
        }
      ],
      "name": "CollateralDeposited",
      "type": "event"
    },
    {
      "anonymous": false,
      "inputs": [
        {
          "indexed": true,
          "internalType": "address",
          "name": "user",
          "type": "address"
        },
        {
          "indexed": false,
          "internalType": "uint256",
          "name": "amount",
          "type": "uint256"
        }
      ],
      "name": "CollateralReleased",
      "type": "event"
    },
    {
      "anonymous": false,
      "inputs": [
        {
          "indexed": true,
          "internalType": "address",
          "name": "user",
          "type": "address"
        },
        {
          "indexed": false,
          "internalType": "uint256",
          "name": "amount",
          "type": "uint256"
        }
      ],
      "name": "CollateralWithdrawn",
      "type": "event"
    },
    {
      "anonymous": false,
      "inputs": [
        {
          "indexed": true,
          "internalType": "address",
          "name": "triggeredBy",
          "type": "address"
        }
      ],
      "name": "EmergencyModeEnabled",
      "type": "event"
    },
    {
      "anonymous": false,
      "inputs": [
        {
          "indexed": false,
          "internalType": "uint256",
          "name": "amount",
          "type": "uint256"
        }
      ],
      "name": "FeesWithdrawn",
      "type": "event"
    },
    {
      "anonymous": false,
      "inputs": [
        {
          "indexed": true,
          "internalType": "address",
          "name": "newOrderBook",
          "type": "address"
        }
      ],
      "name": "OrderBookUpdated",
      "type": "event"
    },
    {
      "anonymous": false,
      "inputs": [
        {
          "indexed": true,
          "internalType": "address",
          "name": "previousOwner",
          "type": "address"
        },
        {
          "indexed": true,
          "internalType": "address",
          "name": "newOwner",
          "type": "address"
        }
      ],
      "name": "OwnershipTransferred",
      "type": "event"
    },
    {
      "anonymous": false,
      "inputs": [
        {
          "indexed": true,
          "internalType": "address",
          "name": "newPerpEngine",
          "type": "address"
        }
      ],
      "name": "PerpEngineUpdated",
      "type": "event"
    },
    {
      "anonymous": false,
      "inputs": [
        {
          "indexed": true,
          "internalType": "address",
          "name": "user",
          "type": "address"
        },
        {
          "indexed": false,
          "internalType": "bool",
          "name": "status",
          "type": "bool"
        }
      ],
      "name": "WhitelistUpdated",
      "type": "event"
    },
    {
      "inputs": [],
      "name": "accumulatedFees",
      "outputs": [
        {
          "internalType": "uint256",
          "name": "",
          "type": "uint256"
        }
      ],
      "stateMutability": "view",
      "type": "function"
    },
    {
      "inputs": [
        {
          "internalType": "address",
          "name": "user",
          "type": "address"
        },
        {
          "internalType": "uint256",
          "name": "amount",
          "type": "uint256"
        }
      ],
      "name": "allocateCollateral",
      "outputs": [],
      "stateMutability": "nonpayable",
      "type": "function"
    },
    {
      "inputs": [
        {
          "internalType": "address",
          "name": "",
          "type": "address"
        }
      ],
      "name": "allocatedCollateral",
      "outputs": [
        {
          "internalType": "uint256",
          "name": "",
          "type": "uint256"
        }
      ],
      "stateMutability": "view",
      "type": "function"
    },
    {
      "inputs": [
        {
          "internalType": "uint256",
          "name": "amount",
          "type": "uint256"
        }
      ],
      "name": "depositCollateral",
      "outputs": [],
      "stateMutability": "nonpayable",
      "type": "function"
    },
    {
      "inputs": [],
      "name": "emergencyMode",
      "outputs": [
        {
          "internalType": "bool",
          "name": "",
          "type": "bool"
        }
      ],
      "stateMutability": "view",
      "type": "function"
    },
    {
      "inputs": [],
      "name": "enableEmergencyMode",
      "outputs": [],
      "stateMutability": "nonpayable",
      "type": "function"
    },
    {
      "inputs": [],
      "name": "feeRecipient",
      "outputs": [
        {
          "internalType": "address",
          "name": "",
          "type": "address"
        }
      ],
      "stateMutability": "view",
      "type": "function"
    },
    {
      "inputs": [
        {
          "internalType": "address",
          "name": "user",
          "type": "address"
        }
      ],
      "name": "getAvailableCollateral",
      "outputs": [
        {
          "internalType": "uint256",
          "name": "",
          "type": "uint256"
        }
      ],
      "stateMutability": "view",
      "type": "function"
    },
    {
      "inputs": [
        {
          "internalType": "address",
          "name": "user",
          "type": "address"
        }
      ],
      "name": "getCollateralStatus",
      "outputs": [
        {
          "internalType": "uint256",
          "name": "total",
          "type": "uint256"
        },
        {
          "internalType": "uint256",
          "name": "allocated",
          "type": "uint256"
        },
        {
          "internalType": "uint256",
          "name": "available",
          "type": "uint256"
        },
        {
          "internalType": "uint256",
          "name": "lastAction",
          "type": "uint256"
        }
      ],
      "stateMutability": "view",
      "type": "function"
    },
    {
      "inputs": [
        {
          "internalType": "address",
          "name": "user",
          "type": "address"
        }
      ],
      "name": "getMaxAllowedAllocation",
      "outputs": [
        {
          "internalType": "uint256",
          "name": "maxAllowed",
          "type": "uint256"
        },
        {
          "internalType": "uint256",
          "name": "currentAllocated",
          "type": "uint256"
        }
      ],
      "stateMutability": "view",
      "type": "function"
    },
    {
      "inputs": [],
      "name": "getSystemInfo",
      "outputs": [
        {
          "internalType": "uint256",
          "name": "totalCollateralAmount",
          "type": "uint256"
        },
        {
          "internalType": "uint256",
          "name": "totalFeesAccumulated",
          "type": "uint256"
        },
        {
          "internalType": "bool",
          "name": "isEmergencyMode",
          "type": "bool"
        },
        {
          "internalType": "address",
          "name": "engineAddress",
          "type": "address"
        },
        {
          "internalType": "address",
          "name": "bookAddress",
          "type": "address"
        }
      ],
      "stateMutability": "view",
      "type": "function"
    },
    {
      "inputs": [],
      "name": "hasMON",
      "outputs": [
        {
          "internalType": "contract IERC20",
          "name": "",
          "type": "address"
        }
      ],
      "stateMutability": "view",
      "type": "function"
    },
    {
      "inputs": [
        {
          "internalType": "address",
          "name": "",
          "type": "address"
        }
      ],
      "name": "lastUpdateTime",
      "outputs": [
        {
          "internalType": "uint256",
          "name": "",
          "type": "uint256"
        }
      ],
      "stateMutability": "view",
      "type": "function"
    },
    {
      "inputs": [],
      "name": "orderBook",
      "outputs": [
        {
          "internalType": "address",
          "name": "",
          "type": "address"
        }
      ],
      "stateMutability": "view",
      "type": "function"
    },
    {
      "inputs": [],
      "name": "owner",
      "outputs": [
        {
          "internalType": "address",
          "name": "",
          "type": "address"
        }
      ],
      "stateMutability": "view",
      "type": "function"
    },
    {
      "inputs": [],
      "name": "perpEngine",
      "outputs": [
        {
          "internalType": "address",
          "name": "",
          "type": "address"
        }
      ],
      "stateMutability": "view",
      "type": "function"
    },
    {
      "inputs": [
        {
          "internalType": "uint256",
          "name": "amount",
          "type": "uint256"
        }
      ],
      "name": "processFee",
      "outputs": [],
      "stateMutability": "nonpayable",
      "type": "function"
    },
    {
      "inputs": [
        {
          "internalType": "address",
          "name": "user",
          "type": "address"
        },
        {
          "internalType": "uint256",
          "name": "amount",
          "type": "uint256"
        },
        {
          "internalType": "int256",
          "name": "pnl",
          "type": "int256"
        }
      ],
      "name": "releaseCollateral",
      "outputs": [],
      "stateMutability": "nonpayable",
      "type": "function"
    },
    {
      "inputs": [],
      "name": "renounceOwnership",
      "outputs": [],
      "stateMutability": "nonpayable",
      "type": "function"
    },
    {
      "inputs": [
        {
          "internalType": "address",
          "name": "_feeRecipient",
          "type": "address"
        }
      ],
      "name": "setFeeRecipient",
      "outputs": [],
      "stateMutability": "nonpayable",
      "type": "function"
    },
    {
      "inputs": [
        {
          "internalType": "address",
          "name": "_orderBook",
          "type": "address"
        }
      ],
      "name": "setOrderBook",
      "outputs": [],
      "stateMutability": "nonpayable",
      "type": "function"
    },
    {
      "inputs": [
        {
          "internalType": "address",
          "name": "_perpEngine",
          "type": "address"
        }
      ],
      "name": "setPerpEngine",
      "outputs": [],
      "stateMutability": "nonpayable",
      "type": "function"
    },
    {
      "inputs": [],
      "name": "totalCollateral",
      "outputs": [
        {
          "internalType": "uint256",
          "name": "",
          "type": "uint256"
        }
      ],
      "stateMutability": "view",
      "type": "function"
    },
    {
      "inputs": [
        {
          "internalType": "address",
          "name": "newOwner",
          "type": "address"
        }
      ],
      "name": "transferOwnership",
      "outputs": [],
      "stateMutability": "nonpayable",
      "type": "function"
    },
    {
      "inputs": [
        {
          "internalType": "address",
          "name": "user",
          "type": "address"
        },
        {
          "internalType": "bool",
          "name": "status",
          "type": "bool"
        }
      ],
      "name": "updateWhitelist",
      "outputs": [],
      "stateMutability": "nonpayable",
      "type": "function"
    },
    {
      "inputs": [
        {
          "internalType": "address",
          "name": "",
          "type": "address"
        }
      ],
      "name": "userCollateral",
      "outputs": [
        {
          "internalType": "uint256",
          "name": "",
          "type": "uint256"
        }
      ],
      "stateMutability": "view",
      "type": "function"
    },
    {
      "inputs": [
        {
          "internalType": "address",
          "name": "",
          "type": "address"
        }
      ],
      "name": "whitelist",
      "outputs": [
        {
          "internalType": "bool",
          "name": "",
          "type": "bool"
        }
      ],
      "stateMutability": "view",
      "type": "function"
    },
    {
      "inputs": [
        {
          "internalType": "uint256",
          "name": "amount",
          "type": "uint256"
        }
      ],
      "name": "withdrawCollateral",
      "outputs": [],
      "stateMutability": "nonpayable",
      "type": "function"
    },
    {
      "inputs": [],
      "name": "withdrawFees",
      "outputs": [],
      "stateMutability": "nonpayable",
      "type": "function"
    }
  ],
  "transactionHash": "0x84d1a55535bbadf22d1ce91348599a6d6b21c65538715a2e519362832bac6583",
  "args": [
    "0xE887582468591CB9dE71ab01acA4101C756A6442",
    "0x989d0faccf313a0d78b0d7fcb0216075eded94e7"
  ],
  "numDeployments": 1,
  "solcInputHash": "b16643e7df8b48fc292aff9038462ff9",
  "bytecode": "0x6080346100e657601f6113cb38819003918201601f19168301916001600160401b038311848410176100eb5780849260409485528339810103126100e657610052602061004b83610101565b9201610101565b33156100cd5760008054336001600160a01b0319808316821784556040519590946001600160a01b03949093859391908416907f8be0079c531659141344cd1fd0a4f28419497f9722a3daafe3b4186f6b6457e09080a360018055168360045416176004551690600a541617600a556112b590816101168239f35b604051631e4fbdf760e01b815260006004820152602490fd5b600080fd5b634e487b7160e01b600052604160045260246000fd5b51906001600160a01b03821682036100e65756fe608060408181526004918236101561001657600080fd5b600092833560e01c9182630905f56014610f1f575081630d392cd914610ea15781632ce9aead14610e69578163373fe98014610d335781634690484014610d0a578163476343ee14610c6157816348ba4d2b14610c385781634ac8eb5f14610c19578163587f5ed714610bfa5781636112fe2e14610a765781636cb69f4214610a24578163715018a6146109ca5781637411afbd14610954578163768e48a11461092c578163776af5ba146109035781638da5cb5b146108db5781639a1598c8146108965781639b19251a14610858578163a8dd9b22146107f0578163b619daf714610702578163b7ce8547146105ab578163bad4a01f146103b2578163bb69bc711461038a578163be4474b4146102f7578163c0ade15a146102bf578163c5b1c7d014610271578163e74b981b14610229578163f2fde38b1461019e575063f69f1e4a1461016457600080fd5b3461019a57602036600319011261019a5760209181906001600160a01b0361018a610f40565b1681526007845220549051908152f35b5080fd5b905034610225576020366003190112610225576101b9610f40565b906101c2610f5b565b6001600160a01b0391821692831561020f57505082546001600160a01b0319811683178455167f8be0079c531659141344cd1fd0a4f28419497f9722a3daafe3b4186f6b6457e08380a380f35b51631e4fbdf760e01b8152908101849052602490fd5b8280fd5b833461026e57602036600319011261026e57610243610f40565b61024b610f5b565b60018060a01b03166bffffffffffffffffffffffff60a01b600a541617600a5580f35b80fd5b833461026e578060031936011261026e5761028a610f5b565b600160ff196002541617600255337fc0a1c7e9f05b4d536e1ff8606bae9b847cdb43ef4a9b2d7a503a88cee08dccdb8280a280f35b50503461019a57602036600319011261019a5760209181906001600160a01b036102e7610f40565b168152600b845220549051908152f35b90503461022557602036600319011261022557803591610315611165565b61032a60018060a01b03600554163314611233565b8215610347578361033d8460095461100b565b6009556001805580f35b906020606492519162461bcd60e51b8352820152601a60248201527f466565206d7573742062652067726561746572207468616e20300000000000006044820152fd5b50503461019a57602036600319011261019a5760209181906001600160a01b0361018a610f40565b83833461019a57602080600319360112610225578335916103d1611165565b60ff60025416610568576103e6831515610f87565b84548151636eb1769f60e11b815233818801523060248201526001600160a01b039184908290604490829086165afa90811561055e579085918791610529575b50106104ed57338552600c835242828620558554168151906323b872dd60e01b848301523360248301523060448301528460648301526064825260a0820182811067ffffffffffffffff8211176104da5783527fd7243f6f8212d5188fd054141cf6ea89cfc0d91facb8c3afe2f88a13584801429392916104a69161102e565b338552600782528085206104bb85825461100b565b90556104c98460085461100b565b600855519283523392a26001805580f35b634e487b7160e01b875260418852602487fd5b815162461bcd60e51b81528087018490526016602482015275496e73756666696369656e7420616c6c6f77616e636560501b6044820152606490fd5b809250858092503d8311610557575b6105428183610fd3565b810103126105535784905188610426565b8580fd5b503d610538565b83513d88823e3d90fd5b5162461bcd60e51b815280850191909152601b60248201527f53797374656d20697320696e20656d657267656e6379206d6f646500000000006044820152606490fd5b905034610225576060366003190112610225576105c6610f40565b9060243590604435906105d7611165565b6005546001600160a01b0393906105f19085163314611233565b80918784136000146106555750509161062e7f15192ee5c95e01de0681c61d6cbfa4b8d1e4c160294017332eb7d6e5c4ea38b7949260209461100b565b915b16938486526007835280862061064783825461100b565b905551908152a26001805580f35b8784929396941261068f575b505050916020917f15192ee5c95e01de0681c61d6cbfa4b8d1e4c160294017332eb7d6e5c4ea38b793610630565b9294509091600160ff1b82146106ef57507f15192ee5c95e01de0681c61d6cbfa4b8d1e4c160294017332eb7d6e5c4ea38b7936020939092909187038181106106e057505085915b91938193610661565b6106e9916111d4565b916106d7565b634e487b7160e01b875260119052602486fd5b8391503461019a57602036600319011261019a5761071e610f40565b610726610f5b565b6001600160a01b039081169182156107ad57600554918216831461077b57506001600160a01b03191681176005557f8a64d92abd11c5d3e10159842d11181b5407bfb5f34b58d52d7d7ddcaab64f178280a280f35b606490602086519162461bcd60e51b8352820152600c60248201526b53616d65206164647265737360a01b6044820152fd5b606490602086519162461bcd60e51b8352820152601a60248201527f496e76616c69642050657270456e67696e6520616464726573730000000000006044820152fd5b50503461019a57602036600319011261019a576080916001600160a01b03610816610f40565b1680825260076020528282205492600b60205280808420549361083985876111d4565b938152600c602052205492815194855260208501528301526060820152f35b50503461019a57602036600319011261019a5760209160ff9082906001600160a01b03610883610f40565b1681526003855220541690519015158152f35b833461026e57602036600319011261026e576108b0610f40565b6108b8610f5b565b60018060a01b03166bffffffffffffffffffffffff60a01b600654161760065580f35b50503461019a578160031936011261019a57905490516001600160a01b039091168152602090f35b50503461019a578160031936011261019a5760065490516001600160a01b039091168152602090f35b9050346102255782600319360112610225575490516001600160a01b03909116815260209150f35b9050823461026e57602036600319011261026e576001600160a01b03610978610f40565b1680825260076020528382205492612328938481029481860414901517156109b757509083918152600b60205220546127108351920482526020820152f35b634e487b7160e01b835260119052602482fd5b833461026e578060031936011261026e576109e3610f5b565b80546001600160a01b03198116825581906001600160a01b03167f8be0079c531659141344cd1fd0a4f28419497f9722a3daafe3b4186f6b6457e08280a380f35b50503461019a578160031936011261019a5760a090600854906009549060ff6002541690600180861b039182600554169260065416938251958652602086015215159084015260608301526080820152f35b919050346102255760209081600319360112610bf657823592610a97611165565b60ff60025416158015610be2575b15610ba857610ab5841515610f87565b33855260078352610acb84838720541015611188565b3385526007835283610ae883872054600b865284882054906111d4565b10610b675790610b59847fc30fcfbcaac9e0deffa719714eaa82396ff506a0d0d0eebe170830177288715d949333885260078552838820610b2a8382546111d4565b9055610b38826008546111d4565b60085533808952600c865284892042905590546001600160a01b03166111e1565b519283523392a26001805580f35b82606492519162461bcd60e51b8352820152601760248201527f436f6c6c61746572616c20697320616c6c6f63617465640000000000000000006044820152fd5b82606492519162461bcd60e51b8352820152601660248201527515da5d1a191c985dd85b1cc81c995cdd1c9a58dd195960521b6044820152fd5b503385526003835260ff8286205416610aa5565b8380fd5b50503461019a578160031936011261019a576020906009549051908152f35b50503461019a578160031936011261019a576020906008549051908152f35b50503461019a578160031936011261019a5760055490516001600160a01b039091168152602090f35b91905034610225578260031936011261022557610c7c610f5b565b600954918215610cd25791602091610cca827f9800e6f57aeb4360eaa72295a820a4293e1e66fbfcabcd8874ae141304a76deb958760095560018060a01b038091541690600a5416906111e1565b51908152a180f35b6020606492519162461bcd60e51b835282015260136024820152724e6f206665657320746f20776974686472617760681b6044820152fd5b50503461019a578160031936011261019a57600a5490516001600160a01b039091168152602090f35b905034610225578160031936011261022557610d4d610f40565b60243590610d59611165565b6005546001600160a01b039190610d739083163314611233565b169283855260209260078452610d8e83838820541015611188565b848652600b8452610da2838388205461100b565b858752600785528287205461232890818102918183041490151715610e5657612710900410610e1c5750907fa056ffc766bf8d666c3c356852abe2066c4435df7f85008d7e7c931f68e420cb9291848652600b8352808620610e0583825461100b565b9055848652600783528086206106478382546111d4565b83606492519162461bcd60e51b8352820152601660248201527522bc31b2b2b2399036b0bc1030b63637b1b0ba34b7b760511b6044820152fd5b634e487b7160e01b885260118352602488fd5b50503461019a57602036600319011261019a5760209181906001600160a01b03610e91610f40565b168152600c845220549051908152f35b50503461019a578060031936011261019a57610ebb610f40565b60243590811515809203610bf6577ff93f9a76c1bf3444d22400a00cb9fe990e6abe9dbb333fda48859cfee864543d91602091610ef6610f5b565b6001600160a01b031680865260038352848620805460ff191660ff84161790559351908152a280f35b84903461019a578160031936011261019a5760209060ff6002541615158152f35b600435906001600160a01b0382168203610f5657565b600080fd5b6000546001600160a01b03163303610f6f57565b60405163118cdaa760e01b8152336004820152602490fd5b15610f8e57565b60405162461bcd60e51b815260206004820152601d60248201527f416d6f756e74206d7573742062652067726561746572207468616e20300000006044820152606490fd5b90601f8019910116810190811067ffffffffffffffff821117610ff557604052565b634e487b7160e01b600052604160045260246000fd5b9190820180921161101857565b634e487b7160e01b600052601160045260246000fd5b60018060a01b031690600080826020829451910182865af13d156110f6573d9067ffffffffffffffff82116110e2579061108a916040519161107a6020601f19601f8401160184610fd3565b82523d84602084013e5b84611102565b9081519182151592836110ba575b5050506110a25750565b60249060405190635274afe760e01b82526004820152fd5b81929350906020918101031261019a57602001519081159182150361026e5750388080611098565b634e487b7160e01b83526041600452602483fd5b61108a90606090611084565b90611129575080511561111757805190602001fd5b604051630a12f52160e11b8152600490fd5b8151158061115c575b61113a575090565b604051639996b31560e01b81526001600160a01b039091166004820152602490fd5b50803b15611132565b600260015414611176576002600155565b604051633ee5aeb560e01b8152600490fd5b1561118f57565b60405162461bcd60e51b815260206004820152601760248201527f496e73756666696369656e7420636f6c6c61746572616c0000000000000000006044820152606490fd5b9190820391821161101857565b60405163a9059cbb60e01b60208201526001600160a01b039092166024830152604480830193909352918152608081019167ffffffffffffffff831182841017610ff5576112319260405261102e565b565b1561123a57565b60405162461bcd60e51b815260206004820152601860248201527f4f6e6c792050657270456e67696e652063616e2063616c6c00000000000000006044820152606490fdfea2646970667358221220cd2eb3ff4797a047d79ffa1147fd98957585174a3aba518c2604177e26a44b6b64736f6c63430008140033",
  "devdoc": {
    "details": "Contract for managing hasMON as collateral for perpetual trading",
    "errors": {
      "AddressEmptyCode(address)": [
        {
          "details": "There's no code at `target` (it is not a contract)."
        }
      ],
      "AddressInsufficientBalance(address)": [
        {
          "details": "The ETH balance of the account is not enough to perform the operation."
        }
      ],
      "FailedInnerCall()": [
        {
          "details": "A call to an address target failed. The target may have reverted."
        }
      ],
      "OwnableInvalidOwner(address)": [
        {
          "details": "The owner is not a valid owner account. (eg. `address(0)`)"
        }
      ],
      "OwnableUnauthorizedAccount(address)": [
        {
          "details": "The caller account is not authorized to perform an operation."
        }
      ],
      "ReentrancyGuardReentrantCall()": [
        {
          "details": "Unauthorized reentrant call."
        }
      ],
      "SafeERC20FailedOperation(address)": [
        {
          "details": "An operation with an ERC20 token failed."
        }
      ]
    },
    "kind": "dev",
    "methods": {
      "allocateCollateral(address,uint256)": {
        "details": "Allocates collateral for a trading position (called by OrderBook/PerpEngine)",
        "params": {
          "amount": "The amount to allocate",
          "user": "The user's address"
        }
      },
      "depositCollateral(uint256)": {
        "details": "Allows users to deposit hasMON as collateral",
        "params": {
          "amount": "The amount of hasMON to deposit"
        }
      },
      "getAvailableCollateral(address)": {
        "details": "Get user's available collateral",
        "params": {
          "user": "The user's address"
        },
        "returns": {
          "_0": "The amount of available collateral"
        }
      },
      "owner()": {
        "details": "Returns the address of the current owner."
      },
      "processFee(uint256)": {
        "details": "Processes trading fees (called by PerpEngine)",
        "params": {
          "amount": "Fee amount to process"
        }
      },
      "releaseCollateral(address,uint256,int256)": {
        "details": "Releases collateral back to user after position closure (called by PerpEngine)",
        "params": {
          "amount": "The amount to release",
          "pnl": "The profit/loss from the position (can be negative)",
          "user": "The user's address"
        }
      },
      "renounceOwnership()": {
        "details": "Leaves the contract without owner. It will not be possible to call `onlyOwner` functions. Can only be called by the current owner. NOTE: Renouncing ownership will leave the contract without an owner, thereby disabling any functionality that is only available to the owner."
      },
      "transferOwnership(address)": {
        "details": "Transfers ownership of the contract to a new account (`newOwner`). Can only be called by the current owner."
      },
      "withdrawCollateral(uint256)": {
        "details": "Allows users to withdraw available hasMON collateral",
        "params": {
          "amount": "The amount of hasMON to withdraw"
        }
      },
      "withdrawFees()": {
        "details": "Withdraws accumulated fees to fee recipient (called by owner)"
      }
    },
    "title": "HasMonCollateral",
    "version": 1
  },
  "userdoc": {
    "kind": "user",
    "methods": {},
    "version": 1
  },
  "storageLayout": {
    "storage": [
      {
        "astId": 54,
        "contract": "contracts/perps/HasMonCollateral.sol:HasMonCollateral",
        "label": "_owner",
        "offset": 0,
        "slot": "0",
        "type": "t_address"
      },
      {
        "astId": 1686,
        "contract": "contracts/perps/HasMonCollateral.sol:HasMonCollateral",
        "label": "_status",
        "offset": 0,
        "slot": "1",
        "type": "t_uint256"
      },
      {
        "astId": 1767,
        "contract": "contracts/perps/HasMonCollateral.sol:HasMonCollateral",
        "label": "emergencyMode",
        "offset": 0,
        "slot": "2",
        "type": "t_bool"
      },
      {
        "astId": 1771,
        "contract": "contracts/perps/HasMonCollateral.sol:HasMonCollateral",
        "label": "whitelist",
        "offset": 0,
        "slot": "3",
        "type": "t_mapping(t_address,t_bool)"
      },
      {
        "astId": 1774,
        "contract": "contracts/perps/HasMonCollateral.sol:HasMonCollateral",
        "label": "hasMON",
        "offset": 0,
        "slot": "4",
        "type": "t_contract(IERC20)923"
      },
      {
        "astId": 1776,
        "contract": "contracts/perps/HasMonCollateral.sol:HasMonCollateral",
        "label": "perpEngine",
        "offset": 0,
        "slot": "5",
        "type": "t_address"
      },
      {
        "astId": 1778,
        "contract": "contracts/perps/HasMonCollateral.sol:HasMonCollateral",
        "label": "orderBook",
        "offset": 0,
        "slot": "6",
        "type": "t_address"
      },
      {
        "astId": 1782,
        "contract": "contracts/perps/HasMonCollateral.sol:HasMonCollateral",
        "label": "userCollateral",
        "offset": 0,
        "slot": "7",
        "type": "t_mapping(t_address,t_uint256)"
      },
      {
        "astId": 1784,
        "contract": "contracts/perps/HasMonCollateral.sol:HasMonCollateral",
        "label": "totalCollateral",
        "offset": 0,
        "slot": "8",
        "type": "t_uint256"
      },
      {
        "astId": 1786,
        "contract": "contracts/perps/HasMonCollateral.sol:HasMonCollateral",
        "label": "accumulatedFees",
        "offset": 0,
        "slot": "9",
        "type": "t_uint256"
      },
      {
        "astId": 1788,
        "contract": "contracts/perps/HasMonCollateral.sol:HasMonCollateral",
        "label": "feeRecipient",
        "offset": 0,
        "slot": "10",
        "type": "t_address"
      },
      {
        "astId": 1792,
        "contract": "contracts/perps/HasMonCollateral.sol:HasMonCollateral",
        "label": "allocatedCollateral",
        "offset": 0,
        "slot": "11",
        "type": "t_mapping(t_address,t_uint256)"
      },
      {
        "astId": 1796,
        "contract": "contracts/perps/HasMonCollateral.sol:HasMonCollateral",
        "label": "lastUpdateTime",
        "offset": 0,
        "slot": "12",
        "type": "t_mapping(t_address,t_uint256)"
      }
    ],
    "types": {
      "t_address": {
        "encoding": "inplace",
        "label": "address",
        "numberOfBytes": "20"
      },
      "t_bool": {
        "encoding": "inplace",
        "label": "bool",
        "numberOfBytes": "1"
      },
      "t_contract(IERC20)923": {
        "encoding": "inplace",
        "label": "contract IERC20",
        "numberOfBytes": "20"
      },
      "t_mapping(t_address,t_bool)": {
        "encoding": "mapping",
        "key": "t_address",
        "label": "mapping(address => bool)",
        "numberOfBytes": "32",
        "value": "t_bool"
      },
      "t_mapping(t_address,t_uint256)": {
        "encoding": "mapping",
        "key": "t_address",
        "label": "mapping(address => uint256)",
        "numberOfBytes": "32",
        "value": "t_uint256"
      },
      "t_uint256": {
        "encoding": "inplace",
        "label": "uint256",
        "numberOfBytes": "32"
      }
    }
  }
}