{
  "address": "0x043FfBC09C1fae6cBfe207039dE14D97EaDffafF",
  "abi": [
    {
      "inputs": [],
      "stateMutability": "nonpayable",
      "type": "constructor"
    },
    {
      "inputs": [
        {
          "internalType": "address",
          "name": "owner",
          "type": "address"
        }
      ],
      "name": "OwnableInvalidOwner",
      "type": "error"
    },
    {
      "inputs": [
        {
          "internalType": "address",
          "name": "account",
          "type": "address"
        }
      ],
      "name": "OwnableUnauthorizedAccount",
      "type": "error"
    },
    {
      "anonymous": false,
      "inputs": [
        {
          "indexed": true,
          "internalType": "address",
          "name": "previousOwner",
          "type": "address"
        },
        {
          "indexed": true,
          "internalType": "address",
          "name": "newOwner",
          "type": "address"
        }
      ],
      "name": "OwnershipTransferred",
      "type": "event"
    },
    {
      "anonymous": false,
      "inputs": [
        {
          "indexed": true,
          "internalType": "bytes32",
          "name": "marketId",
          "type": "bytes32"
        },
        {
          "indexed": true,
          "internalType": "address",
          "name": "feedAddress",
          "type": "address"
        },
        {
          "indexed": false,
          "internalType": "uint8",
          "name": "decimals",
          "type": "uint8"
        }
      ],
      "name": "PriceFeedSet",
      "type": "event"
    },
    {
      "anonymous": false,
      "inputs": [
        {
          "indexed": false,
          "internalType": "uint256",
          "name": "newThreshold",
          "type": "uint256"
        }
      ],
      "name": "StalePriceThresholdUpdated",
      "type": "event"
    },
    {
      "inputs": [
        {
          "internalType": "bytes32",
          "name": "",
          "type": "bytes32"
        }
      ],
      "name": "feedDecimals",
      "outputs": [
        {
          "internalType": "uint8",
          "name": "",
          "type": "uint8"
        }
      ],
      "stateMutability": "view",
      "type": "function"
    },
    {
      "inputs": [
        {
          "internalType": "bytes32",
          "name": "marketId",
          "type": "bytes32"
        }
      ],
      "name": "getPrice",
      "outputs": [
        {
          "internalType": "uint256",
          "name": "price",
          "type": "uint256"
        },
        {
          "internalType": "uint256",
          "name": "timestamp",
          "type": "uint256"
        }
      ],
      "stateMutability": "view",
      "type": "function"
    },
    {
      "inputs": [],
      "name": "owner",
      "outputs": [
        {
          "internalType": "address",
          "name": "",
          "type": "address"
        }
      ],
      "stateMutability": "view",
      "type": "function"
    },
    {
      "inputs": [
        {
          "internalType": "bytes32",
          "name": "",
          "type": "bytes32"
        }
      ],
      "name": "priceFeeds",
      "outputs": [
        {
          "internalType": "address",
          "name": "",
          "type": "address"
        }
      ],
      "stateMutability": "view",
      "type": "function"
    },
    {
      "inputs": [],
      "name": "renounceOwnership",
      "outputs": [],
      "stateMutability": "nonpayable",
      "type": "function"
    },
    {
      "inputs": [
        {
          "internalType": "bytes32",
          "name": "marketId",
          "type": "bytes32"
        },
        {
          "internalType": "address",
          "name": "feedAddress",
          "type": "address"
        },
        {
          "internalType": "uint8",
          "name": "decimals",
          "type": "uint8"
        }
      ],
      "name": "setPriceFeed",
      "outputs": [],
      "stateMutability": "nonpayable",
      "type": "function"
    },
    {
      "inputs": [
        {
          "internalType": "uint256",
          "name": "newThreshold",
          "type": "uint256"
        }
      ],
      "name": "setStalePriceThreshold",
      "outputs": [],
      "stateMutability": "nonpayable",
      "type": "function"
    },
    {
      "inputs": [],
      "name": "stalePriceThreshold",
      "outputs": [
        {
          "internalType": "uint256",
          "name": "",
          "type": "uint256"
        }
      ],
      "stateMutability": "view",
      "type": "function"
    },
    {
      "inputs": [
        {
          "internalType": "address",
          "name": "newOwner",
          "type": "address"
        }
      ],
      "name": "transferOwnership",
      "outputs": [],
      "stateMutability": "nonpayable",
      "type": "function"
    }
  ],
  "transactionHash": "0xbb40467d9da01c0ac73faaecca2d245f0e32d29675184960f2cecd5a9216adae",
  "args": [],
  "numDeployments": 2,
  "solcInputHash": "978c64aafe02294d882239593c17f2dd",
  "bytecode": "0x6080806040523461008057331561006a5760008054336001600160a01b03198216811783556040519290916001600160a01b0316907f8be0079c531659141344cd1fd0a4f28419497f9722a3daafe3b4186f6b6457e09080a361012c6003556106f490816100868239f35b631e4fbdf760e01b815260006004820152602490fd5b600080fdfe608060408181526004908136101561001657600080fd5b600092833560e01c90816308cb221014610356575080631629ecc9146102765780632599af341461022857806331d98b3f146101fe5780634d54da23146101d3578063715018a6146101765780638da5cb5b1461014a578063c6c3f71e146101175763f2fde38b1461008757600080fd5b34610113576020366003190112610113576001600160a01b0382358181169391929084900361010f576100b8610372565b83156100f957505082546001600160a01b0319811683178455167f8be0079c531659141344cd1fd0a4f28419497f9722a3daafe3b4186f6b6457e08380a380f35b51631e4fbdf760e01b8152908101849052602490fd5b8480fd5b8280fd5b5090346101135760203660031901126101135735825260016020908152918190205490516001600160a01b039091168152f35b838234610172578160031936011261017257905490516001600160a01b039091168152602090f35b5080fd5b83346101d057806003193601126101d05761018f610372565b80546001600160a01b03198116825581906001600160a01b03167f8be0079c531659141344cd1fd0a4f28419497f9722a3daafe3b4186f6b6457e08280a380f35b80fd5b509034610113576020366003190112610113578160209360ff92358152600285522054169051908152f35b5091346101d05760203660031901126101d0575061021c90356103c5565b82519182526020820152f35b509034610113576020366003190112610113577fc1889aed38d7217b7da9544724b219b3a25c64efc413bfcfbb187aa96107348291602091359061026a610372565b8160035551908152a180f35b509034610113576060366003190112610113576024356001600160a01b038116928235929184900361010f576044359160ff8316809303610352576102b9610372565b841561031957508285526001602090815281862080546001600160a01b0319168617905560028152818620805460ff19168417905590519182527fe7c02115116419a5b4b395e78dcf1a7e0147af9d84277f1e16abb9ddf1799a7d91a380f35b6020606492519162461bcd60e51b83528201526014602482015273496e76616c69642066656564206164647265737360601b6044820152fd5b8580fd5b8490346101725781600319360112610172576020906003548152f35b6000546001600160a01b0316330361038657565b60405163118cdaa760e01b8152336004820152602490fd5b60ff16604d81116103af57600a0a90565b634e487b7160e01b600052601160045260246000fd5b906000908282526020906001825260409260018060a01b03848220541690811561068957845163351752bf60e11b8152600495939290919084908390889082905afa91828291839461062a575b5061046957845162461bcd60e51b8152808801879052602660248201527f4661696c656420746f2066657463682070726963652066726f6d2053776974636044820152651a189bd85c9960d21b6064820152608490fd5b959490929593919687156105f1578742034281116105de57600354106105aa5783851261056757808452600282528284205460ff1660088111156104fe575083526002905281205460ff908116600719019081116104eb576104ca9061039e565b9283156104d8575050049190565b634e487b7160e01b825260129052602490fd5b634e487b7160e01b825260118452602482fd5b949593949250505060088110156105605760080360ff811161054d576105239061039e565b9283810293818504149015171561053a5750509190565b634e487b7160e01b825260119052602490fd5b634e487b7160e01b835260118252602483fd5b5050509190565b825162461bcd60e51b8152808701839052601760248201527f4e656761746976652070726963652072657475726e65640000000000000000006044820152606490fd5b825162461bcd60e51b8152808701839052600e60248201526d5072696365206973207374616c6560901b6044820152606490fd5b634e487b7160e01b855260118752602485fd5b825162461bcd60e51b815280870183905260136024820152725072696365206e6f7420617661696c61626c6560681b6044820152606490fd5b91509250843d8611610682575b601f8101601f1916820167ffffffffffffffff81118382101761066f5786918391835281010312610172578581519101519238610412565b634e487b7160e01b845260418952602484fd5b503d610637565b845162461bcd60e51b815260048101859052600e60248201526d11995959081b9bdd08199bdd5b9960921b6044820152606490fdfea264697066735822122033165be7046f4b3b1748ecbd7caf457f2438b0c7b35db507f7d88e54c8051d5564736f6c63430008140033",
  "devdoc": {
    "details": "Contract that integrates with Switchboard's data feeds for price oracle functionality",
    "errors": {
      "OwnableInvalidOwner(address)": [
        {
          "details": "The owner is not a valid owner account. (eg. `address(0)`)"
        }
      ],
      "OwnableUnauthorizedAccount(address)": [
        {
          "details": "The caller account is not authorized to perform an operation."
        }
      ]
    },
    "kind": "dev",
    "methods": {
      "getPrice(bytes32)": {
        "details": "Gets the latest price from Switchboard for a specific market",
        "params": {
          "marketId": "The ID of the market"
        },
        "returns": {
          "price": "The latest price (normalized to 8 decimals)",
          "timestamp": "The timestamp of the latest update"
        }
      },
      "owner()": {
        "details": "Returns the address of the current owner."
      },
      "renounceOwnership()": {
        "details": "Leaves the contract without owner. It will not be possible to call `onlyOwner` functions. Can only be called by the current owner. NOTE: Renouncing ownership will leave the contract without an owner, thereby disabling any functionality that is only available to the owner."
      },
      "setPriceFeed(bytes32,address,uint8)": {
        "details": "Sets a Switchboard price feed for a specific market",
        "params": {
          "decimals": "The number of decimals used in the feed",
          "feedAddress": "The address of the Switchboard feed",
          "marketId": "The ID of the market"
        }
      },
      "setStalePriceThreshold(uint256)": {
        "details": "Updates the stale price threshold",
        "params": {
          "newThreshold": "New threshold in seconds"
        }
      },
      "transferOwnership(address)": {
        "details": "Transfers ownership of the contract to a new account (`newOwner`). Can only be called by the current owner."
      }
    },
    "title": "SwitchboardOracle",
    "version": 1
  },
  "userdoc": {
    "kind": "user",
    "methods": {},
    "version": 1
  },
  "storageLayout": {
    "storage": [
      {
        "astId": 8,
        "contract": "contracts/perps/SwitchboardOracle.sol:SwitchboardOracle",
        "label": "_owner",
        "offset": 0,
        "slot": "0",
        "type": "t_address"
      },
      {
        "astId": 2145,
        "contract": "contracts/perps/SwitchboardOracle.sol:SwitchboardOracle",
        "label": "priceFeeds",
        "offset": 0,
        "slot": "1",
        "type": "t_mapping(t_bytes32,t_address)"
      },
      {
        "astId": 2149,
        "contract": "contracts/perps/SwitchboardOracle.sol:SwitchboardOracle",
        "label": "feedDecimals",
        "offset": 0,
        "slot": "2",
        "type": "t_mapping(t_bytes32,t_uint8)"
      },
      {
        "astId": 2152,
        "contract": "contracts/perps/SwitchboardOracle.sol:SwitchboardOracle",
        "label": "stalePriceThreshold",
        "offset": 0,
        "slot": "3",
        "type": "t_uint256"
      }
    ],
    "types": {
      "t_address": {
        "encoding": "inplace",
        "label": "address",
        "numberOfBytes": "20"
      },
      "t_bytes32": {
        "encoding": "inplace",
        "label": "bytes32",
        "numberOfBytes": "32"
      },
      "t_mapping(t_bytes32,t_address)": {
        "encoding": "mapping",
        "key": "t_bytes32",
        "label": "mapping(bytes32 => address)",
        "numberOfBytes": "32",
        "value": "t_address"
      },
      "t_mapping(t_bytes32,t_uint8)": {
        "encoding": "mapping",
        "key": "t_bytes32",
        "label": "mapping(bytes32 => uint8)",
        "numberOfBytes": "32",
        "value": "t_uint8"
      },
      "t_uint256": {
        "encoding": "inplace",
        "label": "uint256",
        "numberOfBytes": "32"
      },
      "t_uint8": {
        "encoding": "inplace",
        "label": "uint8",
        "numberOfBytes": "1"
      }
    }
  }
}